:100000000C9446000C9465000C9465000C946500FB
:100010000C9465000C9465000C9465000C946500CC
:100020000C9465000C9465000C9465000C946500BC
:100030000C9465000C9465000C9465000C946500AC
:100040000C9465000C9465000C9465000C9465009C
:100050000C9465000C9465000C9465000C9465008C
:100060000C9465000C9465000C9465000C9465007C
:100070000C9465000C9465000C9465000C9465006C
:100080000C9465000C9465000C94650011241FBE4F
:10009000CFEFD0E4DEBFCDBF11E0A0E0B1E0E0E9FA
:1000A000F2E000E00BBF02C007900D92AE30B10746
:1000B000D9F711E0AEE0B1E001C01D92A031B10767
:1000C000E1F70E942D010C9446010C940000CF939F
:1000D000DF9300D01F92CDB7DEB789837B836A831D
:1000E00089818A3031F48A819B81BC018DE00E9434
:1000F000670080EC90E0FC018081882F90E08072A6
:1001000099270097B1F386EC90E02981FC012083C8
:1001100080E090E00F900F900F90DF91CF910895C5
:10012000CF93DF93CDB7DEB780910E0190910F0191
:1001300082309105D9F18330910530F4009761F058
:100140008130910581F063C083309105B1F1843035
:10015000910509F455C05BC081E090E090930F01D8
:1001600080930E0154C080E290E0FC018081882FD2
:1001700090E081709927009739F082E090E09093A9
:100180000F0180930E0111C080E290E0FC0180819C
:10019000882F90E081709927009739F481E090E0F2
:1001A00090930F0180930E0132C031C083E090E044
:1001B00090930F0180930E012AC080E290E0FC0131
:1001C0008081882F90E081709927009739F083E033
:1001D00090E090930F0180930E0111C080E290E0B7
:1001E000FC018081882F90E081709927009739F475
:1001F00084E090E090930F0180930E0108C007C047
:1002000081E090E090930F0180930E0100008091B7
:100210000E0190910F0182309105C9F08330910554
:1002200030F40097B1F08130910529F013C083308C
:10023000910539F00FC085E290E021E0FC012083B8
:1002400009C085E290E022E0FC01208303C00000A9
:1002500001C00000DF91CF910895CF93DF93CDB718
:10026000DEB781E290E0FC01108282E290E02FEFA5
:10027000FC01208384E290E02FEFFC01208385E2E3
:1002800090E0FC0110820E949000FDCFF894FFCF17
:0E0290000000000200000000670000000000F7
:00000001FF
