:100000000C9446000C9465000C9465000C946500FB
:100010000C9465000C9465000C9465000C946500CC
:100020000C9465000C9465000C9465000C946500BC
:100030000C9465000C9465000C9465000C946500AC
:100040000C9465000C9465000C9465000C9465009C
:100050000C9465000C9465000C9465000C9465008C
:100060000C9465000C9465000C9465000C9465007C
:100070000C9465000C9465000C9465000C9465006C
:100080000C9465000C9465000C94650011241FBE4F
:10009000CFEFD0E4DEBFCDBF11E0A0E0B1E0EAE8F1
:1000A000F2E000E00BBF02C007900D92AE30B10746
:1000B000D9F711E0AEE0B1E001C01D92A031B10767
:1000C000E1F70E942A010C9443010C940000CF93A5
:1000D000DF9300D01F92CDB7DEB789837B836A831D
:1000E00089818A3031F48A819B81BC018DE00E9434
:1000F000670080EC90E0FC018081882F90E08072A6
:1001000099270097B1F386EC90E02981FC012083C8
:1001100080E090E00F900F900F90DF91CF910895C5
:10012000CF93DF93CDB7DEB780910E0190910F0191
:100130008230910581F18330910530F4009761F0B0
:100140008130910581F04DC08330910559F18430A3
:10015000910509F43FC045C081E090E090930F0104
:1001600080930E0145C080E290E0FC018081882FE1
:1001700090E081709927009739F082E090E09093A9
:100180000F0180930E0134C081E090E090930F0145
:1001900080930E012DC083E090E090930F01809337
:1001A0000E0126C080E290E0FC018081882F90E063
:1001B00081709927009739F083E090E090930F01C8
:1001C00080930E0115C084E090E090930F0180931E
:1001D0000E010EC081E090E090930F0180930E011C
:1001E00007C081E090E090930F0180930E01000022
:1001F00080910E0190910F018230910519F18330A9
:10020000910530F4009701F18130910541F013C060
:100210008330910551F084309105C1F00CC085E226
:1002200090E021E0FC01208312C085E290E022E012
:10023000FC0120830CC085E290E021E0FC012083DA
:10024000000005C0000003C0000001C00000DF91F5
:10025000CF910895CF93DF93CDB7DEB781E290E0E1
:10026000FC01108282E290E02FEFFC01208384E207
:1002700090E02FEFFC01208385E290E0FC011082EA
:0A0280000E949000FDCFF894FFCF1C
:0E028A000000000200000000670000000000FD
:00000001FF
