:100000000C9454000C9473000C9473000C947300C3
:100010000C9473000C9473000C9473000C94730094
:100020000C9473000C9473000C9473000C94730084
:100030000C9473000C9473000C9473000C94730074
:100040000C9473000C9473000C9473000C94730064
:100050000C9473000C9473000C9473000C94730054
:100060000C9473000C9473000C9473000C94730044
:100070000C9473000C9473000C9473000C94730034
:100080000C9473000C9473000C947300B800BF00C0
:10009000FB000901020122013B016D019C019C0151
:1000A00073019C018201910111241FBECFEFD0E4A6
:1000B000DEBFCDBF11E0A0E0B1E0E8E8F3E000E092
:1000C0000BBF02C007900D92AE30B107D9F711E017
:1000D000AEE0B1E001C01D92A031B107E1F70E948E
:1000E000A0010C94C2010C940000CF93DF9300D0C8
:1000F0001F92CDB7DEB789837B836A8389818A307B
:1001000031F48A819B81BC018DE00E94750080ECF6
:1001100090E0FC018081882F90E080729927009701
:10012000B1F386EC90E02981FC01208380E090E02F
:100130000F900F900F90DF91CF910895CF93DF93A1
:10014000CDB7DEB780910E0190910F01CC01A0E0F8
:10015000B0E040E050E026E030E0841B950B28172B
:10016000390708F4A1C08A5B9F4FFC010C94B901C8
:1001700081E090E090930F0180930E0199C080E29E
:1001800090E0FC018081882F90E081709927009792
:1001900039F082E090E090930F0180930E012AC025
:1001A00080E290E0FC018081882F90E082709927A6
:1001B000009739F084E090E090930F0180930E0156
:1001C00019C080E290E0FC018081882F90E083706C
:1001D00099278330910539F486E090E090930F01E0
:1001E00080930E0107C081E090E090930F0180930F
:1001F0000E015EC05DC083E090E090930F0180939C
:100200000E0156C085E090E090930F0180930E019F
:100210004FC080E290E0FC018081882F90E08370E5
:1002200099278330910539F486E090E090930F018F
:1002300080930E013DC081E090E090930F01809388
:100240000E0136C080E290E0FC018081882F90E0B2
:10025000837099278330910539F486E090E090937C
:100260000F0180930E0124C081E090E090930F0174
:1002700080930E011DC080E290E0FC018081882FF8
:1002800090E0837099278330910539F486E090E0FF
:1002900090930F0180930E010BC081E090E090934A
:1002A0000F0180930E0104C010920F0110920E01F5
:1002B00080910E0190910F01CC01A0E0B0E040E0F0
:1002C00050E026E030E0841B950B2817390768F1D1
:1002D000835B9F4FFC010C94B90188E290E027E01A
:1002E000FC0120832AC088E290E0FC0180818930F3
:1002F00040F488E290E0FC0120812F5FFC01208324
:100300001CC01BC088E290E0FC018081882341F082
:1003100088E290E0FC0120812150FC0120830DC087
:100320000CC088E290E0FC01108288E290E027E0B7
:10033000FC012083000001C00000DF91CF910895EF
:10034000CF93DF93CDB7DEB781E290E0FC0110825E
:1003500082E290E02FEFFC01208387E290E02FEF14
:10036000FC01208385E290E0FC0110820E949E0047
:10037000FDCFEE0FFF1F0024001C0BBE0790F6916F
:08038000E02D0994F894FFCF71
:0E0388000000000200000000750000000000F0
:00000001FF
