:100000000C9446000C9465000C9465000C946500FB
:100010000C9465000C9465000C9465000C946500CC
:100020000C9465000C9465000C9465000C946500BC
:100030000C9465000C9465000C9465000C946500AC
:100040000C9465000C9465000C9465000C9465009C
:100050000C9465000C9465000C9465000C9465008C
:100060000C9465000C9465000C9465000C9465007C
:100070000C9465000C9465000C9465000C9465006C
:100080000C9465000C9465000C94650011241FBE4F
:10009000CFEFD0E4DEBFCDBF11E0A0E0B1E0EAEAEF
:1000A000F3E000E00BBF02C007900D92AE30B10745
:1000B000D9F711E0AEE0B1E001C01D92A031B10767
:1000C000E1F70E94BA010C94D3010C940000CF9385
:1000D000DF9300D01F92CDB7DEB789837B836A831D
:1000E00089818A3031F48A819B81BC018DE00E9434
:1000F000670080EC90E0FC018081882F90E08072A6
:1001000099270097B1F386EC90E02981FC012083C8
:1001100080E090E00F900F900F90DF91CF910895C5
:10012000CF93DF93CDB7DEB780910E0190910F0191
:100130008230910509F454C08330910530F4009762
:1001400089F08130910521F1CEC08430910509F408
:1001500092C08430910508F46BC08530910509F494
:10016000A9C0C1C080E290E0FC018081882F90E0AE
:1001700084709927009739F081E090E090930F0107
:1001800080930E01B4C010920F0110920E01AFC007
:1001900080E290E0FC018081882F90E084709927B4
:1001A000009739F081E090E090930F0180930E0169
:1001B00016C080E290E0FC018081882F90E084707E
:1001C0009927009739F482E090E090930F01809393
:1001D0000E0105C010920F0110920E0188C087C059
:1001E00080E290E0FC018081882F90E08270992766
:1001F000009739F083E090E090930F0180930E0117
:1002000016C080E290E0FC018081882F90E084702D
:100210009927009739F482E090E090930F01809342
:100220000E0105C010920F0110920E0160C05FC058
:1002300080E290E0FC018081882F90E08270992715
:10024000009739F083E090E090930F0180930E01C6
:1002500011C080E290E0FC018081882F90E08270E4
:100260009927009739F484E090E090930F018093F0
:100270000E013DC03CC080E290E0FC0180818823FB
:100280003CF485E090E090930F0180930E0111C043
:1002900080E290E0FC018081882F90E082709927B5
:1002A000009739F484E090E090930F0180930E0161
:1002B0001EC01DC080E290E0FC01808188233CF4D8
:1002C00085E090E090930F0180930E010BC080E2D7
:1002D00090E0FC01808188232CF010920F01109295
:1002E0000E0105C004C010920F0110920E01809102
:1002F0000E0190910F0182309105E9F08330910554
:1003000030F4009771F08130910581F02BC084307A
:100310009105E1F08430910598F085309105E1F088
:1003200021C088E290E0FC01108221C088E290E0C8
:10033000FC0110821CC088E290E0FC01108217C012
:1003400088E290E021E0FC01208311C088E290E087
:1003500021E0FC0120830BC088E290E021E0FC0159
:10036000208305C088E290E0FC0110820000DF914C
:10037000CF910895CF93DF93CDB7DEB781E290E0C0
:10038000FC01108282E290E02FEFFC01208387E2E3
:1003900090E02FEFFC01208388E290E0FC011082C6
:0A03A0000E949000FDCFF894FFCFFB
:0E03AA000000000200000000670000000000DC
:00000001FF
